S00F00004C6162656C65722E737265635E
S113000071C000000BC200001DC20000D8C1000076
S1130010C2C1000079C0000077C0000075C00000B4
S113002073C0000071C000006FC000006DC000000C
S11300306BC0000069C0000067C0000065C000001C
S113004063C0000061C000005FC000005DC000002C
S11300505BC0000059C0000057C0000055C000003C
S113006053C0000051C000004FC000004DC000004C
S11300704BC0000049C0000047C0000045C000005C
S113008043C0000041C000003FC000003DC000006C
S11300903BC0000039C0000037C0000035C000007C
S11300A033C0000031C000002FC000002DC000008C
S11300B02BC0000029C0000027C0000062C100005E
S11300C038C1000021C000001FC000001DC0000096
S11300D01BC0000019C0000017C0000015C00000BC
S11300E013C0000011241FBECFEFD1E2DEBFCDBF8D
S11300F000E00CBF22E0A0E0B2E001C01D92A430F9
S1130100B207E1F7FAD0B2C17BCFECE7F0E080812F
S11301108F7D8083808180648083808185608083FB
S1130120EBE7F0E0808188608083EAE7F0E087E82D
S11301308083A7E0B1E08C918F7D8C9387EC8083E2
S11301407DC0089598B19B7098B998B1986098B99A
S113015098B1282F207F922B98B998B1977F98B99E
S113016098B1986098B998B19F7098B928B130E166
S1130170839FC0011124822B88B988B1877F88B9F5
S11301808FE99FE00197F1F700C00000089587B15F
S11301908C6F87B92FEF89EF90E021508040904019
S11301A0E1F700C0000088B18B7088B988B188631A
S11301B088B988B1877F88B98FE19EE40197F1F708
S11301C000C0000088B1886088B988B1877F88B989
S11301D08FE99FE00197F1F700C0000088B18860C3
S11301E088B988B1877F88B98FE99FE00197F1F7D3
S11301F000C0000088B1886088B988B18F7088B960
S113020088B1806288B988B1877F88B98FE99FE017
S11302100197F1F700C0000088B1886088B988E2CE
S113022091DF86E08FDF8FE08DDF81E08BDF8FE968
S11302309FE00197F1F700C0000008951092C500F7
S113024088E08093C40088E18093C10086E08093B5
S1130250C20008959091C00095FFFCCF8093C60022
S113026008958091C0008823E4F78091C600089522
S113027010929100109281001092900010928000D0
S113028008951092A1001092A0000895E3E7F0E011
S113029080818B7F8083E1E2F1E08081887F8083AD
S11302A00895FF920F931F93CF93DF936623F1F08A
S11302B0F62E8C01C0E00AC0D4DFD82FCBDFDD23BB
S11302C071F0F801EC0FF11DD083CF5F4C2F50E09B
S11302D02F2D30E021503109421753076CF3F801F8
S11302E0EC0FF11D108281E08C0F01C080E0DF91E2
S11302F0CF911F910F91FF900895CF93DF93CDB7C6
S1130300DEB7A1970FB6F894DEBF0FBECDBF96DF60
S11303103EDFFBDE1A821982FE0133968FE1DF0194
S11303201D928A95E9F761E2CE010196BADF92DF68
S1130330FACF1F920F920FB60F9211240BB60F92A1
S11303402F933F934F935F936F937F938F939F93D9
S1130350AF93BF93EF93FF9394DF98DFFF91EF91F7
S1130360BF91AF919F918F917F916F915F914F91C9
S11303703F912F910F900BBE0F900FBE0F901F90C7
S113038018951F920F920FB60F9211240F900FBE63
S11303900F901F9018951F920F920FB60F92112471
S11303A08F934B9904C081E08093010202C01092A4
S11303B001028F910F900FBE0F901F9018951F92FE
S11303C00F920FB60F9211240BB60F922F933F93F7
S11303D04F935F936F937F938F939F93AF93BF9349
S11303E0EF93FF934A9905C081E08093030240DFB5
S11303F002C010920302FF91EF91BF91AF919F91C0
S11304008F917F916F915F914F913F912F910F90B9
S11304100BBE0F900FBE0F901F9018951F920F9256
S11304200FB60F9211248F93489904C081E08093F2
S1130430020202C0109202028F910F900FBE0F9021
S11304401F9018951F920F920FB60F9211248F933D
S1130450499904C081E08093000202C01092000216
S11304608F910F900FBE0F901F901895F894FFCFA7
S9030000FC
